:100000000C9463000C948B000C948B000C948B006C
:100010000C948B000C948B000C948B000C948B0034
:100020000C948B000C948B000C948B000C948B0024
:100030000C948B000C948B000C948B000C948B0014
:100040000C94BF020C948B000C942F030C940903A6
:100050000C948B000C948B000C948B000C948B00F4
:100060000C948B000C948B000000000024002700EF
:100070002A0000000000250028002B0000000000DE
:1000800023002600290004040404040404040202DA
:100090000202020203030303030301020408102007
:1000A0004080010204081020010204081020000012
:1000B0000008000201000003040700000000000027
:1000C000000061032E0511241FBECFEFD8E0DEBF74
:1000D000CDBF21E0A0E2B1E001C01D92AF3DB2076B
:1000E000E1F711E0A0E0B1E0E0E7FFE002C0059039
:1000F0000D92A032B107D9F710E0C2E6D0E004C0FB
:100100002197FE010E949905C136D107C9F70E94C7
:100110009F030C94AB070C9400000895CF92DF92DC
:10012000EF92FF920F931F93CF93DF936C017A01AD
:100130008B01C0E0D0E0CE15DF0589F0D8016D91CC
:100140008D01D601ED91FC910190F081E02DC60169
:100150000995892B11F47E0102C02196ECCFC701CD
:10016000DF91CF911F910F91FF90EF90DF90CF9093
:100170000895089580E090E00895FC01538D448D2A
:10018000252F30E0842F90E0821B930B541710F042
:10019000CF96089501970895FC01918D828D98174F
:1001A00061F0828DDF01A80FB11D5D968C91928D5B
:1001B0009F5F9F73928F90E008958FEF9FEF089558
:1001C000FC01918D828D981731F0828DE80FF11D21
:1001D000858D90E008958FEF9FEF0895FC01918D3C
:1001E000228D892F90E0805C9F4F821B91098F7335
:1001F000992708958CE291E00E94EE0021E0892B7E
:1002000009F420E0822F0895FC01848DDF01A80FFE
:10021000B11DA35ABF4F2C91848D90E001968F732E
:100220009927848FA689B7892C93A089B1898C914D
:1002300080648C93938D848D981306C00288F38913
:10024000E02D80818F7D80830895EF92FF920F9340
:100250001F93CF93DF93EC0181E0888F9B8D8C8D72
:10026000981305C0E889F989808185FD24C0F62EA0
:100270000B8D10E00F5F1F4F0F731127E02E8C8D39
:10028000E8120CC00FB607FCFACFE889F989808123
:1002900085FFF5CFCE010E940401F1CF8B8DFE01C9
:1002A000E80FF11DE35AFF4FF0820B8FEA89FB89BB
:1002B0008081806207C0EE89FF896083E889F989BF
:1002C00080818064808381E090E0DF91CF911F91F5
:1002D0000F91FF90EF900895CF93DF93EC01888DFD
:1002E0008823C9F0EA89FB89808185FD05C0A8893A
:1002F000B9898C9186FD0FC00FB607FCF5CF8081C0
:1003000085FFF2CFA889B9898C9185FFEDCFCE0109
:100310000E940401E7CFDF91CF91089580E090E043
:10032000892B29F00E94FA0081110C940000089595
:10033000833081F028F4813099F08230A1F0089563
:100340008730A9F08830B9F08430D1F480918000F2
:100350008F7D03C0809180008F7780938000089507
:1003600084B58F7702C084B58F7D84BD0895809158
:10037000B0008F7703C08091B0008F7D8093B00074
:100380000895CF93DF93282F30E0F901E255FF4F16
:100390008491F901E656FF4FD491F901EA57FF4FD6
:1003A000C491CC2391F081110E949801EC2FF0E0D0
:1003B000EE0FFF1FE458FF4FA591B491EC91ED2390
:1003C00081E090E021F480E002C080E090E0DF91E5
:1003D000CF9108951F93CF93DF93282F30E0F90139
:1003E000E255FF4F8491F901E656FF4FD491F90190
:1003F000EA57FF4FC491CC23C9F0162F81110E94F8
:100400009801EC2FF0E0EE0FFF1FEE58FF4FA59183
:10041000B4918FB7F894111105C09C91ED2FE09520
:10042000E92302C0EC91ED2BEC938FBFDF91CF91CC
:100430001F910895CF93DF9390E0FC01E656FF4FA4
:100440002491FC01EA57FF4F8491882361F190E0E9
:10045000880F991FFC01E859FF4FC591D491FC0109
:10046000EE58FF4FA591B491611109C09FB7F89460
:100470008881209582238883EC912E230BC06230E3
:1004800061F49FB7F8943881822F80958323888305
:10049000EC912E2B2C939FBF06C08FB7F894E88168
:1004A0002E2B28838FBFDF91CF910895009769F09D
:1004B000FC0101900020E9F73197AF01481B590B6F
:1004C000BC018CE291E00C948E0080E090E00895F5
:1004D0000E949607EF92FF920F931F93CF93DF93A3
:1004E000EC017B018A0188819981009729F02A819A
:1004F0003B8124173507F8F4B8016F5F7F4F0E94E6
:10050000CC06009759F0998388831B830A832C813A
:100510003D81232B81F4FC0110820DC088819981DB
:10052000009711F00E943406198218821D821C82E5
:100530001B821A8207C01D830C83B70188819981B1
:100540000E94A407CE01DF91CF911F910F91FF90E0
:10055000EF900895FC01118210821382128215829D
:1005600014826115710551F0FB0101900020E9F73B
:100570003197AF01461B570B0C946A0208951F92E6
:100580000F920FB60F9211242F933F938F939F9347
:10059000AF93BF938091280190912901A0912A01E6
:1005A000B0912B013091270123E0230F2D3720F448
:1005B0000196A11DB11D05C026E8230F0296A11DBD
:1005C000B11D209327018093280190932901A093C6
:1005D0002A01B0932B018091230190912401A091D5
:1005E0002501B09126010196A11DB11D8093230123
:1005F00090932401A0932501B0932601BF91AF9160
:100600009F918F913F912F910F900FBE0F901F9050
:1006100018951F920F920FB60F9211242F933F93AC
:100620004F935F936F937F938F939F93AF93BF93FA
:10063000EF93FF938CE291E00E940401FF91EF9110
:10064000BF91AF919F918F917F916F915F914F91EA
:100650003F912F910F900FBE0F901F9018951F92F2
:100660000F920FB60F9211242F938F939F93EF93B6
:10067000FF93E0913C01F0913D018081E0914201C6
:10068000F091430182FD12C09081809145018F5FFE
:100690008F7320914601821751F0E0914501F0E0FF
:1006A000E45DFE4F958F8093450101C08081FF91ED
:1006B000EF919F918F912F910F900FBE0F901F90F0
:1006C0001895ECE2F1E01382128288EE93E0A0E04C
:1006D000B0E084839583A683B7838AE091E0918319
:1006E000808385EC90E09587848784EC90E0978701
:1006F000868780EC90E0918B808B81EC90E0938BEF
:10070000828B82EC90E0958B848B86EC90E0978BCB
:10071000868B118E128E138E148E6BE171E085ED37
:1007200091E00E94AA026BE171E08FEC91E00E94DF
:10073000AA026BE171E089EC91E00C94AA02CF93DC
:10074000DF93CDB7DEB7A1970FB6F894DEBF0FBE2B
:10075000CDBF789484B5826084BD84B5816084BD4A
:1007600085B5826085BD85B5816085BD80916E004F
:10077000816080936E001092810080918100826080
:1007800080938100809181008160809381008091BD
:1007900080008160809380008091B10084608093AC
:1007A000B1008091B00081608093B00080917A00A8
:1007B000846080937A0080917A00826080937A00CE
:1007C00080917A00816080937A0080917A008068BD
:1007D00080937A001092C100E0913C01F0913D01BC
:1007E00082E08083E0913801F09139011082E0913C
:1007F0003A01F0913B018FEC808310924401E0912B
:100800004001F091410186E08083E0913E01F0914A
:100810003F01808180618083E0913E01F0913F0142
:10082000808188608083E0913E01F0913F0180816A
:1008300080688083E0913E01F0913F0180818F7D4F
:10084000808361E08DE00E941A0261E08CE00E94EA
:100850001A0260E08AE00E941A0260E08BE00E94C7
:100860001A0260E089E00E941A0260E088E00E94BB
:100870001A0260E083E10E941A026BE171E0CE018E
:1008800001960E94AA028091C9019091CA01009725
:10089000C9F069817A816115710591F04091CB01B0
:1008A0005091CC012D813E814217530748F00E94A0
:1008B000A4078D819E819093CE018093CD0118C0B5
:1008C0000E94340689819A819093CA018093C9015C
:1008D0008B819C819093CC018093CB018D819E81F3
:1008E0009093CE018093CD011A8219821C821B82C3
:1008F0001E821D8289819A810E9434068AE0882E98
:10090000912CA12CB12CC0902101D0902201C601C4
:10091000019690932201809321010D2C000CEE088A
:10092000FF08F7FE26C0E0912C01F0912D01019007
:10093000F081E02D6DE28CE291E0099522273327CA
:10094000A9012C193D094E095F0919A28E010F5DFD
:100950001F4FCA01B901A50194010E947705605D8E
:10096000F80162938F01211531054105510589F781
:1009700015C0A701960119A28E010F5D1F4FCA0174
:10098000B901A50194010E947705605DF8016293A9
:100990008F01211531054105510589F7C8010E94D4
:1009A00056028AE00E94C101019749F48AE00E9440
:1009B000C1010197D9F388E191E00E9456028BE0D2
:1009C0000E94C101019769F48BE00E94C101019767
:1009D000D9F341E050E06AE171E08FEC91E00E94D0
:1009E0006A0289E00E94C101019749F489E00E94EE
:1009F000C1010197D9F38CE191E00E94560288E091
:100A00000E94C101019749F488E00E94C101019749
:100A1000D9F38EE191E00E9456028CE291E00E94AF
:100A2000EE0018161906BCF48CE291E00E94CC008E
:100A300080932001813321F0823329F461E008C0E2
:100A400061E08DE006C060E08DE00E94EA0160E0B8
:100A50008CE00E94EA010E948E0155CF8091C9016D
:100A60009091CA010E9434068091CF019091D001EB
:100A70000E9434068091D5019091D6010C943406E1
:100A80002F923F924F925F926F927F928F929F929E
:100A9000AF92BF92CF92DF92EF92FF920F931F938C
:100AA000CF93DF93CDB7DEB7CA1BDB0B0FB6F8943D
:100AB000DEBF0FBECDBF09942A88398848885F847D
:100AC0006E847D848C849B84AA84B984C884DF80EE
:100AD000EE80FD800C811B81AA81B981CE0FD11DD2
:100AE0000FB6F894DEBF0FBECDBFED010895A1E2B1
:100AF0001A2EAA1BBB1BFD010DC0AA1FBB1FEE1F98
:100B0000FF1FA217B307E407F50720F0A21BB30BE2
:100B1000E40BF50B661F771F881F991F1A9469F75E
:100B200060957095809590959B01AC01BD01CF01BA
:100B30000895EE0FFF1F0590F491E02D0994CF93D7
:100B4000DF938230910510F482E090E0E091DD01C6
:100B5000F091DE0120E030E0C0E0D0E0309711F10C
:100B60004081518148175907C0F04817590761F46F
:100B700082819381209719F09B838A832BC0909365
:100B8000DE018093DD0126C02115310519F04217E1
:100B9000530718F49A01BE01DF01EF010280F381CF
:100BA000E02DDCCF2115310509F1281B390B24304C
:100BB000310590F412968D919C91139761157105F2
:100BC00021F0FB019383828304C09093DE01809324
:100BD000DD01FD01329644C0FD01E20FF31F819358
:100BE0009193225031092D933C933AC02091DB011F
:100BF0003091DC01232B41F420910201309103015B
:100C00003093DC012093DB01209100013091010140
:100C10002115310541F42DB73EB7409104015091A3
:100C20000501241B350BE091DB01F091DC01E2179B
:100C3000F307A0F42E1B3F0B2817390778F0AC01FF
:100C40004E5F5F4F2417350748F04E0F5F1F5093DC
:100C5000DC014093DB018193919302C0E0E0F0E07E
:100C6000CF01DF91CF9108950F931F93CF93DF931F
:100C7000009709F48CC0FC01329713821282009114
:100C8000DD011091DE010115110581F42081318112
:100C9000820F931F2091DB013091DC012817390767
:100CA00079F5F093DC01E093DB0171C0D80140E0FD
:100CB00050E0AE17BF0750F412962D913C91139758
:100CC000AD012115310509F1D901F3CF9D01DA01FB
:100CD0003383228360817181860F971F8217930768
:100CE00069F4EC0128813981260F371F2E5F3F4FB1
:100CF000318320838A819B8193838283452B29F4CE
:100D0000F093DE01E093DD0142C01396FC93EE9375
:100D10001297ED01499159919E01240F351FE21759
:100D2000F30771F480819181840F951F02961196CB
:100D30009C938E938281938113969C938E931297AA
:100D4000E0E0F0E0D80112968D919C911397009706
:100D500019F0F8018C01F6CF8D919C9198012E5FCE
:100D60003F4F820F931F2091DB013091DC01281748
:100D7000390769F4309729F41092DE011092DD01F1
:100D800002C0138212821093DC010093DB01DF9119
:100D9000CF911F910F910895A0E0B0E0E2EDF6E051
:100DA0000C944405EC01009721F4CB010E949F05AF
:100DB000B8C0FC01E60FF71F9C0122503109E21771
:100DC000F30708F4ACC0D9010D911C9111970617D7
:100DD0001707B0F00530110508F49FC0C80104974B
:100DE0008617970708F499C002501109061B170BC4
:100DF000019311936D937C93CF010E9434068DC0B3
:100E00005B01A01AB10A4C01800E911EA091DD0178
:100E1000B091DE0140E050E0E12CF12C109709F494
:100E20004AC0A815B905D1F56D907C901197630162
:100E300082E0C80ED11CCA14DB0480F1A3014A1958
:100E40005B096A0182E0C80ED11C1296BC90129711
:100E50001396AC91B5E0CB16D10440F0B282A383D7
:100E600051834083D9016D937C930AC00E5F1F4F5D
:100E7000C301800F911FF90191838083EB2DFA2F1D
:100E8000E114F10431F0D7011396FC93EE9312971D
:100E900044C0F093DE01E093DD013FC08D919C9151
:100EA00011974817590708F4AC017D0112960D906F
:100EB000BC91A02DB3CF8091DB019091DC0188150E
:100EC0009905E1F446175707C8F480910001909105
:100ED0000101009741F48DB79EB7409104015091F4
:100EE0000501841B950BE817F907C8F4F093DC01A2
:100EF000E093DB01F901718360830FC0CB010E9495
:100F00009F057C01009759F0A801BE010E949B0734
:100F1000CE010E943406C70104C0CE0102C080E0A9
:100F200090E0CDB7DEB7EEE00C94600581E090E094
:100F3000F8940C94AB07FB01DC0102C001900D9208
:100F400041505040D8F70895FB01DC0101900D920B
:100F50000020E1F7089510E0C2E6D0E004C0FE01F1
:100F60000E9499052196C336D107C9F7F894FFCF9F
:100F70000000DF0180000000000025018E00BD00A0
:100F80006C01EE00CC00E0007500640072006C00A3
:00000001FF
